{
  "_format": "hh-sol-artifact-1",
  "contractName": "Ballot",
  "sourceName": "contracts/Ballot.sol",
  "abi": [
    {
      "inputs": [
        {
          "internalType": "string",
          "name": "_ballotOfficialName",
          "type": "string"
        },
        {
          "internalType": "string",
          "name": "_proposal",
          "type": "string"
        }
      ],
      "stateMutability": "nonpayable",
      "type": "constructor"
    },
    {
      "inputs": [
        {
          "internalType": "address",
          "name": "_voterAddress",
          "type": "address"
        },
        {
          "internalType": "string",
          "name": "_voterName",
          "type": "string"
        }
      ],
      "name": "addVoter",
      "outputs": [],
      "stateMutability": "nonpayable",
      "type": "function"
    },
    {
      "inputs": [],
      "name": "ballotOfficialAddress",
      "outputs": [
        {
          "internalType": "address",
          "name": "",
          "type": "address"
        }
      ],
      "stateMutability": "view",
      "type": "function"
    },
    {
      "inputs": [],
      "name": "ballotOfficialName",
      "outputs": [
        {
          "internalType": "string",
          "name": "",
          "type": "string"
        }
      ],
      "stateMutability": "view",
      "type": "function"
    },
    {
      "inputs": [
        {
          "internalType": "bool",
          "name": "_choice",
          "type": "bool"
        }
      ],
      "name": "doVote",
      "outputs": [],
      "stateMutability": "nonpayable",
      "type": "function"
    },
    {
      "inputs": [],
      "name": "endVote",
      "outputs": [],
      "stateMutability": "nonpayable",
      "type": "function"
    },
    {
      "inputs": [],
      "name": "finalResult",
      "outputs": [
        {
          "internalType": "uint256",
          "name": "",
          "type": "uint256"
        }
      ],
      "stateMutability": "view",
      "type": "function"
    },
    {
      "inputs": [],
      "name": "proposal",
      "outputs": [
        {
          "internalType": "string",
          "name": "",
          "type": "string"
        }
      ],
      "stateMutability": "view",
      "type": "function"
    },
    {
      "inputs": [],
      "name": "startVote",
      "outputs": [],
      "stateMutability": "nonpayable",
      "type": "function"
    },
    {
      "inputs": [],
      "name": "state",
      "outputs": [
        {
          "internalType": "enum Ballot.State",
          "name": "",
          "type": "uint8"
        }
      ],
      "stateMutability": "view",
      "type": "function"
    },
    {
      "inputs": [],
      "name": "totalVote",
      "outputs": [
        {
          "internalType": "uint256",
          "name": "",
          "type": "uint256"
        }
      ],
      "stateMutability": "view",
      "type": "function"
    },
    {
      "inputs": [],
      "name": "totalVoter",
      "outputs": [
        {
          "internalType": "uint256",
          "name": "",
          "type": "uint256"
        }
      ],
      "stateMutability": "view",
      "type": "function"
    },
    {
      "inputs": [
        {
          "internalType": "address",
          "name": "",
          "type": "address"
        }
      ],
      "name": "voterRegister",
      "outputs": [
        {
          "internalType": "string",
          "name": "voterName",
          "type": "string"
        },
        {
          "internalType": "bool",
          "name": "voted",
          "type": "bool"
        }
      ],
      "stateMutability": "view",
      "type": "function"
    }
  ],
  "bytecode": "0x6080604052600080556000600155600060025560006003553480156200002457600080fd5b506040516200188d3803806200188d83398181016040528101906200004a919062000239565b33600460006101000a81548173ffffffffffffffffffffffffffffffffffffffff021916908373ffffffffffffffffffffffffffffffffffffffff1602179055508160059080519060200190620000a392919062000117565b508060069080519060200190620000bc92919062000117565b506000600960006101000a81548160ff021916908360028111156200010a577f4e487b7100000000000000000000000000000000000000000000000000000000600052602160045260246000fd5b021790555050506200041c565b828054620001259062000341565b90600052602060002090601f01602090048101928262000149576000855562000195565b82601f106200016457805160ff191683800117855562000195565b8280016001018555821562000195579182015b828111156200019457825182559160200191906001019062000177565b5b509050620001a49190620001a8565b5090565b5b80821115620001c3576000816000905550600101620001a9565b5090565b6000620001de620001d884620002d5565b620002ac565b905082815260208101848484011115620001f757600080fd5b620002048482856200030b565b509392505050565b600082601f8301126200021e57600080fd5b815162000230848260208601620001c7565b91505092915050565b600080604083850312156200024d57600080fd5b600083015167ffffffffffffffff8111156200026857600080fd5b62000276858286016200020c565b925050602083015167ffffffffffffffff8111156200029457600080fd5b620002a2858286016200020c565b9150509250929050565b6000620002b8620002cb565b9050620002c6828262000377565b919050565b6000604051905090565b600067ffffffffffffffff821115620002f357620002f2620003dc565b5b620002fe826200040b565b9050602081019050919050565b60005b838110156200032b5780820151818401526020810190506200030e565b838111156200033b576000848401525b50505050565b600060028204905060018216806200035a57607f821691505b60208210811415620003715762000370620003ad565b5b50919050565b62000382826200040b565b810181811067ffffffffffffffff82111715620003a457620003a3620003dc565b5b80604052505050565b7f4e487b7100000000000000000000000000000000000000000000000000000000600052602260045260246000fd5b7f4e487b7100000000000000000000000000000000000000000000000000000000600052604160045260246000fd5b6000601f19601f8301169050919050565b611461806200042c6000396000f3fe608060405234801561001057600080fd5b50600436106100b45760003560e01c8063b922394611610071578063b92239461461016a578063c19d93fb14610174578063d9e95a9814610192578063de975d18146101ae578063f1cea4c7146101cc578063f3a8286f146101ea576100b4565b80634c0a6af0146100b95780636332abc9146100c3578063753ec103146100e157806387caea78146100ff578063909497471461011b578063af15408714610139575b600080fd5b6100c1610208565b005b6100cb6103af565b6040516100d89190611090565b60405180910390f35b6100e96103b5565b6040516100f69190610fbe565b60405180910390f35b61011960048036038101906101149190610e5e565b610443565b005b610123610769565b6040516101309190610f88565b60405180910390f35b610153600480360381019061014e9190610de1565b61078f565b604051610161929190610fe0565b60405180910390f35b610172610848565b005b61017c6109f8565b6040516101899190610fa3565b60405180910390f35b6101ac60048036038101906101a79190610e0a565b610a0b565b005b6101b6610c12565b6040516101c39190610fbe565b60405180910390f35b6101d4610ca0565b6040516101e19190611090565b60405180910390f35b6101f2610ca6565b6040516101ff9190611090565b60405180910390f35b6000806002811115610243577f4e487b7100000000000000000000000000000000000000000000000000000000600052602160045260246000fd5b600960009054906101000a900460ff16600281111561028b577f4e487b7100000000000000000000000000000000000000000000000000000000600052602160045260246000fd5b146102cb576040517f08c379a00000000000000000000000000000000000000000000000000000000081526004016102c290611010565b60405180910390fd5b600460009054906101000a900473ffffffffffffffffffffffffffffffffffffffff1673ffffffffffffffffffffffffffffffffffffffff163373ffffffffffffffffffffffffffffffffffffffff161461035b576040517f08c379a000000000000000000000000000000000000000000000000000000000815260040161035290611050565b60405180910390fd5b6001600960006101000a81548160ff021916908360028111156103a7577f4e487b7100000000000000000000000000000000000000000000000000000000600052602160045260246000fd5b021790555050565b60025481565b600680546103c2906111cc565b80601f01602080910402602001604051908101604052809291908181526020018280546103ee906111cc565b801561043b5780601f106104105761010080835404028352916020019161043b565b820191906000526020600020905b81548152906001019060200180831161041e57829003601f168201915b505050505081565b600180600281111561047e577f4e487b7100000000000000000000000000000000000000000000000000000000600052602160045260246000fd5b600960009054906101000a900460ff1660028111156104c6577f4e487b7100000000000000000000000000000000000000000000000000000000600052602160045260246000fd5b14610506576040517f08c379a00000000000000000000000000000000000000000000000000000000081526004016104fd90611010565b60405180910390fd5b6000600860003373ffffffffffffffffffffffffffffffffffffffff1673ffffffffffffffffffffffffffffffffffffffff1681526020019081526020016000206000018054610555906111cc565b90501415610598576040517f08c379a000000000000000000000000000000000000000000000000000000000815260040161058f90611030565b60405180910390fd5b600860003373ffffffffffffffffffffffffffffffffffffffff1673ffffffffffffffffffffffffffffffffffffffff16815260200190815260200160002060010160009054906101000a900460ff1615610628576040517f08c379a000000000000000000000000000000000000000000000000000000000815260040161061f90611070565b60405180910390fd5b6001600860003373ffffffffffffffffffffffffffffffffffffffff1673ffffffffffffffffffffffffffffffffffffffff16815260200190815260200160002060010160006101000a81548160ff02191690831515021790555081156106a15760008081548092919061069b9061122f565b91905055505b60405180604001604052803373ffffffffffffffffffffffffffffffffffffffff16815260200183151581525060076000600354815260200190815260200160002060008201518160000160006101000a81548173ffffffffffffffffffffffffffffffffffffffff021916908373ffffffffffffffffffffffffffffffffffffffff16021790555060208201518160000160146101000a81548160ff021916908315150217905550905050600360008154809291906107609061122f565b91905055505050565b600460009054906101000a900473ffffffffffffffffffffffffffffffffffffffff1681565b60086020528060005260406000206000915090508060000180546107b2906111cc565b80601f01602080910402602001604051908101604052809291908181526020018280546107de906111cc565b801561082b5780601f106108005761010080835404028352916020019161082b565b820191906000526020600020905b81548152906001019060200180831161080e57829003601f168201915b5050505050908060010160009054906101000a900460ff16905082565b6001806002811115610883577f4e487b7100000000000000000000000000000000000000000000000000000000600052602160045260246000fd5b600960009054906101000a900460ff1660028111156108cb577f4e487b7100000000000000000000000000000000000000000000000000000000600052602160045260246000fd5b1461090b576040517f08c379a000000000000000000000000000000000000000000000000000000000815260040161090290611010565b60405180910390fd5b600460009054906101000a900473ffffffffffffffffffffffffffffffffffffffff1673ffffffffffffffffffffffffffffffffffffffff163373ffffffffffffffffffffffffffffffffffffffff161461099b576040517f08c379a000000000000000000000000000000000000000000000000000000000815260040161099290611050565b60405180910390fd5b6002600960006101000a81548160ff021916908360028111156109e7577f4e487b7100000000000000000000000000000000000000000000000000000000600052602160045260246000fd5b021790555060005460018190555050565b600960009054906101000a900460ff1681565b6000806002811115610a46577f4e487b7100000000000000000000000000000000000000000000000000000000600052602160045260246000fd5b600960009054906101000a900460ff166002811115610a8e577f4e487b7100000000000000000000000000000000000000000000000000000000600052602160045260246000fd5b14610ace576040517f08c379a0000000000000000000000000000000000000000000000000000000008152600401610ac590611010565b60405180910390fd5b600460009054906101000a900473ffffffffffffffffffffffffffffffffffffffff1673ffffffffffffffffffffffffffffffffffffffff163373ffffffffffffffffffffffffffffffffffffffff1614610b5e576040517f08c379a0000000000000000000000000000000000000000000000000000000008152600401610b5590611050565b60405180910390fd5b604051806040016040528083815260200160001515815250600860008573ffffffffffffffffffffffffffffffffffffffff1673ffffffffffffffffffffffffffffffffffffffff1681526020019081526020016000206000820151816000019080519060200190610bd1929190610cac565b5060208201518160010160006101000a81548160ff02191690831515021790555090505060026000815480929190610c089061122f565b9190505550505050565b60058054610c1f906111cc565b80601f0160208091040260200160405190810160405280929190818152602001828054610c4b906111cc565b8015610c985780601f10610c6d57610100808354040283529160200191610c98565b820191906000526020600020905b815481529060010190602001808311610c7b57829003601f168201915b505050505081565b60035481565b60015481565b828054610cb8906111cc565b90600052602060002090601f016020900481019282610cda5760008555610d21565b82601f10610cf357805160ff1916838001178555610d21565b82800160010185558215610d21579182015b82811115610d20578251825591602001919060010190610d05565b5b509050610d2e9190610d32565b5090565b5b80821115610d4b576000816000905550600101610d33565b5090565b6000610d62610d5d846110d0565b6110ab565b905082815260208101848484011115610d7a57600080fd5b610d8584828561118a565b509392505050565b600081359050610d9c816113fd565b92915050565b600081359050610db181611414565b92915050565b600082601f830112610dc857600080fd5b8135610dd8848260208601610d4f565b91505092915050565b600060208284031215610df357600080fd5b6000610e0184828501610d8d565b91505092915050565b60008060408385031215610e1d57600080fd5b6000610e2b85828601610d8d565b925050602083013567ffffffffffffffff811115610e4857600080fd5b610e5485828601610db7565b9150509250929050565b600060208284031215610e7057600080fd5b6000610e7e84828501610da2565b91505092915050565b610e908161111d565b82525050565b610e9f8161112f565b82525050565b610eae81611178565b82525050565b6000610ebf82611101565b610ec9818561110c565b9350610ed9818560208601611199565b610ee281611334565b840191505092915050565b6000610efa60208361110c565b9150610f0582611345565b602082019050919050565b6000610f1d601f8361110c565b9150610f288261136e565b602082019050919050565b6000610f4060188361110c565b9150610f4b82611397565b602082019050919050565b6000610f6360168361110c565b9150610f6e826113c0565b602082019050919050565b610f828161116e565b82525050565b6000602082019050610f9d6000830184610e87565b92915050565b6000602082019050610fb86000830184610ea5565b92915050565b60006020820190508181036000830152610fd88184610eb4565b905092915050565b60006040820190508181036000830152610ffa8185610eb4565b90506110096020830184610e96565b9392505050565b6000602082019050818103600083015261102981610eed565b9050919050565b6000602082019050818103600083015261104981610f10565b9050919050565b6000602082019050818103600083015261106981610f33565b9050919050565b6000602082019050818103600083015261108981610f56565b9050919050565b60006020820190506110a56000830184610f79565b92915050565b60006110b56110c6565b90506110c182826111fe565b919050565b6000604051905090565b600067ffffffffffffffff8211156110eb576110ea611305565b5b6110f482611334565b9050602081019050919050565b600081519050919050565b600082825260208201905092915050565b60006111288261114e565b9050919050565b60008115159050919050565b6000819050611149826113e9565b919050565b600073ffffffffffffffffffffffffffffffffffffffff82169050919050565b6000819050919050565b60006111838261113b565b9050919050565b82818337600083830152505050565b60005b838110156111b757808201518184015260208101905061119c565b838111156111c6576000848401525b50505050565b600060028204905060018216806111e457607f821691505b602082108114156111f8576111f76112d6565b5b50919050565b61120782611334565b810181811067ffffffffffffffff8211171561122657611225611305565b5b80604052505050565b600061123a8261116e565b91507fffffffffffffffffffffffffffffffffffffffffffffffffffffffffffffffff82141561126d5761126c611278565b5b600182019050919050565b7f4e487b7100000000000000000000000000000000000000000000000000000000600052601160045260246000fd5b7f4e487b7100000000000000000000000000000000000000000000000000000000600052602160045260246000fd5b7f4e487b7100000000000000000000000000000000000000000000000000000000600052602260045260246000fd5b7f4e487b7100000000000000000000000000000000000000000000000000000000600052604160045260246000fd5b6000601f19601f8301169050919050565b7f506c6561736520636f6d706c65746520746865206265666f7265207374657073600082015250565b7f596f7520617265206e6f7420617574686f72697a656420746f20766f74652e00600082015250565b7f596f7520617265206e6f7420746865206f6666696369616c0000000000000000600082015250565b7f596f752061726520616c726561647920766f7465642e00000000000000000000600082015250565b600381106113fa576113f96112a7565b5b50565b6114068161111d565b811461141157600080fd5b50565b61141d8161112f565b811461142857600080fd5b5056fea264697066735822122009b6655207bc5f36babf438b8529e5a1fe28468f9ffd7b1eda1c78643947128664736f6c63430008040033",
  "linkReferences": {},
  "deployedLinkReferences": {}
}